:020000040800F2
:10000000E008002005010008B3480008D9370008BF
:10001000B1480008DD120008ED51000800000000A2
:100020000000000000000000000000007F4B0008FE
:1000300023130008000000007D4B0008814B0008DE
:100040001F0100081F0100081F0100081F01000810
:100050001F0100081F010008251300082B130008CA
:100060001F0100081F0100081F010008E11200081D
:100070001F0100081F0100081F010008ED12000801
:100080001F0100081F0100087D1100081F01000862
:100090001F0100081F0100081F0100081F010008C0
:1000A0001F0100081F0100081F0100081F010008B0
:1000B0001F010008014C00080D4C0008DD37000846
:1000C0001F0100081F0100081F0100081F01000890
:1000D0001F010008A15100081F0100081F010008AE
:1000E0001F0100081F0100081F010008DFF810D0E1
:1000F00000F080FE00480047D9700008AFF3008090
:10010000E00800200648804706480047FEE7FEE773
:10011000FEE7FEE7FEE7FEE7FEE7FEE7FEE7FEE7B7
:10012000FD4B0008ED000008202A04DB203A21FAEC
:1001300002F00021704721FA02F3D040C2F1200200
:10014000914008431946704740EA01039B0703D0DA
:1001500009E008C9121F08C0042AFAD203E011F806
:10016000013B00F8013B521EF9D27047D2B201E0C8
:1001700000F8012B491EFBD270470022F6E710B5AC
:1001800013460A4604461946FFF7F0FF204610BD05
:100190000FB400B58DB010A909900B9000914FF0ED
:1001A000FF300A9000200C90054806900548079003
:1001B0006A4609A80F9900F01FFD0DB05DF814FB09
:1001C000150C0008330C00082DE9FF4F087883B0A8
:1001D0009946FF2805D0491C2D2804D00024002072
:1001E00008E000200BE00124F9E700EB800003EBBE
:1001F0004000491C0B78FF2BF7D104B1404200238B
:100200000293147819461D462D2C01D02B2C04D1B5
:10021000521C2D2C13D000240294AA461478FF2CD3
:100220000FD00A25A3FB057801FB05814FF0000CD8
:1002300003FB0C11521CE3194AEB0101EEE7012408
:10024000EAE7814453EA010002D019F5C87F06DAD3
:1002500003980021C0E9001107B0BDE8F08F002528
:10026000AE4E2F46DFF8B882184600F087FDCDE984
:100270000001B9F1000002DAC9F1000400E004460F
:100280000023A74A1AEB030B42EB045A12E0E007E3
:1002900007D02A4633463846414600F0B4FA0746AE
:1002A00088462A4633461046194600F0ACFA054601
:1002B0000E466410002CEAD1DDE90001B9F1000F0F
:1002C0005A46534606DA00F010FB3A46434600F021
:1002D0000CFB05E000F097FA3A46434600F093FA2B
:1002E000029A0AB181F00041039AC2E90001B3E722
:1002F0002DE9FF4F1F468DB0D7E901464FF0FF387B
:100300002E2045464FF000090B90B9696D1C0E98E0
:100310008847396A824688470028F6D1BAF1FF3FFC
:100320000AD024F4D064002E11DDBAF12B0F08D0CE
:10033000BAF12D0F0BD102E0404611B08DE744F425
:100340008064B9696D1C0E9888478246761E69469E
:10035000600501D52D2000E02B208DF8000001F173
:10036000010B0DF1200809E0B9696D1C0E98884752
:1003700082460F9844F40074761E0560002E02DD5C
:10038000BAF1300FF0D00B998A453ED144F0800489
:1003900006E00F99681CA9F1010944F40074086093
:1003A000B9696D1C761E0E98884782463028F0D0B9
:1003B0002BE00B998A4505D1200603D444F0800434
:1003C000761E18E0504605F01FF808B30DF1130132
:1003D000761E44F400748B4508D2AAF130000BF865
:1003E000010B200607D5A9F1010003E0200602D485
:1003F00009F101008146A00502D50F99681C08602B
:10040000B9696D1C0E9888478246002ED1DC53E0F6
:10041000002E51DDBAF1650F02D0BAF1450F4BD174
:10042000A00549D5B9696D1C24F44074761E0E9858
:1004300088478246002E0CDD2B2804D0BAF12D0F00
:1004400007D144F48074B9696D1C0E9888478246C0
:10045000761EE00501D52D2100E02B2108F8011BB7
:10046000CDF82C8021E00DF12901761E44F40074B2
:1004700088450CD2AAF1300010F0FF0088F8000087
:1004800002D10B99884509D908F1010806E0E00579
:1004900001D5244801E042F20F708146B9696D1C14
:1004A0000E98884782460F980560002E04DD50465E
:1004B00004F0AAFF0028D6D1F9690E988847FF20DA
:1004C0008BF8000088F800000020069007904B464B
:1004D0006A4608A906A8FFF777FEA00502D46FF0C8
:1004E00001002AE714F0240F0AD0E00714D1DDE957
:1004F00006123868031D3B600068C0E900120BE07B
:10050000DDE9060100F0DAFA0146E00704D13868B7
:10051000021D3A600068016028460EE700001440A2
:100520000000F03FF1D8FFFFF0B480EA0102D40FE1
:100530004200B2EB410F02D20246084611464A0081
:1005400042D0C30DDDB2C1F3C752AD1A202D35DA4A
:10055000C1F3160141F4000204B15242C5F1200674
:1005600002FA06F12A411044B3EBD05F23D0C4B1A4
:10057000012DA0EBC35009DCF0BC4FF0004202EAB1
:10058000C352DBB200F5000000F06DBB400000F18B
:10059000807000EBC350A0F1807040EAD170490038
:1005A00009E0490841EAC071A0EBC35000F5000022
:1005B000400800EBC350F0BC00F04CBB614201228C
:1005C00002EB4101001BF6E7F0BC704781F00041EF
:1005D000AAE780F00040A7E780EA010210B502F028
:1005E0000043400022D04A001FD0010E01EB1261EF
:1005F000C0F35600C2F3560240F4000042F4000279
:10060000A0FB022000047F39140400D0401C50EAF3
:10061000124001D44000491EC2B20C0604EBD010B7
:10062000401C4008802A02D003E0002010BD20F0CA
:100630000100002900DA0020184310BD30B480EA20
:10064000010202F0004530F0004221F0004013D0DA
:1006500090B1C30DD40DC2F31601C0F31600E41A15
:1006600041F4000140F400027D34914201D3641C46
:1006700000E04900002C02DA30BC002070474FF443
:1006800000000023914201D3891A034340084FEA36
:100690004101F7D151B1914202D14FF0004105E043
:1006A00002D24FF0010101E06FF0010103EBC450F1
:1006B000284430BC00F0CEBA2DE9FE4F804681EAD6
:1006C0000300C00F0C46009021F0004123F00045CC
:1006D000B8EB0200A94105D24046214690461C468F
:1006E0000B46024623F00040104347D0270DC7F3C6
:1006F0000A00C3F30A510290401A019040286BDAB5
:10070000C3F3130040F4801B0098924620B10023ED
:10071000D2EB030A63EB0B0B01985946C0F1400280
:10072000504600F042FA06460D4650465946019A98
:1007300000F04AFA10EB08006141002487EA1152E8
:1007400084EAE7731A4340D0009A62B3019A012AFF
:100750004FEA075215DC001B61EB02014FF000422B
:1007600002EA0752CDE90042001C41F580113246F1
:100770002B4600F0B5FA03B0BDE8F08F40462146A5
:10078000F9E7001B61EB0201001C41F58013001822
:100790005B412018A2F5001747EB030140EAD57032
:1007A000B6196D4111E06D084FEA360645EAC0758D
:1007B0004FEA0752001B61EB0201001C41F580115A
:1007C00049084FEA30000019514132462B4603B028
:1007D000BDE8F04F00F075BA0098012240000023F8
:1007E000D0EB020263EBE073009821464FEAE0741D
:1007F000B8EB000061EB0401E9E783F000435BE73D
:1008000081F0004158E72DE9FE4F81EA030404F02E
:10081000004421F0004100944FF0000B23F000430E
:1008200050EA01045ED052EA03045BD0C3F30A54D9
:10083000C1F30A552C44A4F2F3340194A0FB0254F2
:10084000C1F3130141F48011C3F3130343F4801384
:1008500001FB024400FB034E840A970A44EA8154D8
:1008600047EA8357A4FB076802958D0A05FB0785B5
:100870004FEA932C04FB0C542705029D4FEA0658BF
:1008800047EA1637B5EB08056EEB070C870E920E9C
:1008900047EA811742EA8312A7FB0201B6EB0B017C
:1008A00064EB00042B0D43EA0C335E1844EB1C5040
:1008B000DA465146E7FB0201C5F313044FEA0B3356
:1008C00043EA14534FEA0432019C43EA0603A4F1BD
:1008D0000C040294009CCDE900B400F001FA03B0CE
:1008E000BDE8F08F00200146F9E72DE9F04D81EADF
:1008F000030404F0004B21F0004514464FF0000AB9
:1009000023F0004150EA050220D054EA01021DD034
:10091000C5F30A570246C5F31303C1F31300C1F32D
:100920000A5640F4801543F48013A7EB0608101B09
:10093000D64608F2FD3873EB050002D308F1010832
:1009400001E092185B41B8F1000F03DA0020014684
:10095000BDE8F08D00204FF48011064684460EE07D
:10096000171B73EB050705D3121B63EB0503064347
:100970004CEA010C49084FEA300092185B4150EAFA
:100980000107EDD152EA030012D082EA040083EAA3
:100990000501084305D0101BAB4106D201220023FC
:1009A00006E000224FF0004302E06FF00102531016
:1009B0001AEB06004CEB085110EB0A0041EB0B015F
:1009C000BDE8F04D00F07DB9C10F80EAE070084449
:1009D000CA079623002100F046B99623002211464B
:1009E00000F041B90EB540F2334102910021CDE94A
:1009F00000110A460B4600F073F903B000BD00F089
:100A0000004220F00040C10DC0F3160040F4000089
:100A10007F2901DA00207047962903DCC1F1960195
:100A2000C84001E096398840002AF4D0404270471F
:100A300020F00040C10DC0F3160040F400007F29F3
:100A400001DA00207047962903DCC1F19601C84005
:100A5000704796398840704770B5C1F30A5201F06B
:100A600000450024C1F3130140F2FF3341F480112B
:100A70009A4201DA002070BD40F233439A42A2F25A
:100A8000334203DC5242FFF74FFB00E090402C431F
:100A9000F1D0404270BD00F0004230F000400AD07A
:100AA000C10D01F56071C0F3160042EA0151C208A0
:100AB00040071143704700200146704701F0004392
:100AC00030B421F0004150EA010206D00A0DA2F52F
:100AD0006072C1F31301002A02DC30BC00207047B1
:100AE000440F44EAC104C100E01830BC00EBC2501E
:100AF00000F0B0B8002801DBC0F10040002901DBA4
:100B0000C1F1004181427047002801DBC0F1004083
:100B1000002901DBC1F100418842704730B50B4626
:100B2000014600202022012409E021FA02F59D421D
:100B300005D303FA02F5491B04FA02F52844151EF1
:100B4000A2F10102F1DC30BD2DE9F05F0546002085
:100B500092469B4688460646814640241BE028462E
:100B6000414647462246FFF7DFFA53465A46C01A27
:100B7000914110D311461846224600F016F82D1A5E
:100B800067EB01084F4622460120002100F00DF8D6
:100B900017EB00094E41201EA4F10104DFDC48469A
:100BA00031462A464346BDE8F09F202A04DB203A1E
:100BB00000FA02F1002070479140C2F1200320FAB0
:100BC00003F3194390407047202A06DBCB17203AE5
:100BD00041FA02F043EAE07306E041FA02F3D04042
:100BE000C2F120029140084319467047026811443F
:100BF0001378016018467047D16004495161044977
:100C0000116200211161114600F00CB9ED0B0008D2
:100C1000190E0008426842B1016811F8013B23B186
:100C2000521EC0E90012184670470121C160881E9B
:100C3000704742685AB1C368016843B983688B4200
:100C400005D0491E521CC0E90012002070474FF029
:100C5000FF3070470029A8BF7047401C490008BFFB
:100C600020F00100704710B4B0FA80FC00FA0CF0DC
:100C700050EA010404BF10BC704749B1CCF1200414
:100C800021FA04F411FA0CF118BF012121430843A1
:100C9000A3EB0C01CB1D4FEA00614FEA102042BFCD
:100CA000002010BC704700EBC35010440029A4BFC3
:100CB00010BC7047401C490008BF20F0010010BC68
:100CC000704710B5141E73F1000408DA401C41F19E
:100CD000000192185B411A4301D120F0010010BDC0
:100CE0002DE9F04D92469B4611B1B1FA81F202E036
:100CF000B0FA80F220329046FFF757FF04460F46C5
:100D000040EA0A0041EA0B0153465A46084313D011
:100D1000114653EA010019D0C8F140025046FFF7CE
:100D200003FA05460E46504659464246FFF73DFF38
:100D3000084305D0012004E020463946BDE8F08D87
:100D40000020054346EAE0762C4337430A986305C2
:100D5000E40AA0EB08000022FD0A44EA47540A30E6
:100D600002D500200146E9E7010510196941DDE9D6
:100D7000084500196941BDE8F04DA2E70EB540F203
:100D8000334202920022CDE900221346FFF7A8FF6A
:100D900003B000BDC1F30A52C1F3130140F2FF33A7
:100DA00041F480119A4202DA00200146704740F275
:100DB00033439A42A2F2334202DC5242FFF7B4B903
:100DC000FFF7F3BE30B5041E71F1000404DB4FF0F1
:100DD0000044404264EB0101141E73F1000405DB82
:100DE0001C464FF00043524263EB0403994208BF94
:100DF000904230BD064C074D06E0E06840F001032C
:100E000094E8070098471034AC42F6D3FFF772F924
:100E1000D47A0008F47A0008C0B24FF4F05100F020
:100E200099B900002DE9F34F8BB04FF0000801F1A4
:100E30000C000C464FF0010B46460DF1080A0190DC
:100E40006269012101989047051E2DD0252D2CD0D7
:100E5000216A8847C0B16269012101989047216ADF
:100E600088470028F7D1411E62690198904700E049
:100E7000761CA1690B988847216A88470028F7D11A
:100E8000E1690B988847DBE7A1690B98884707461B
:100E9000A84201D1761CD3E7E1690B9888477F1CF3
:100EA00002D1B8F1000F6FD047E1002762693D46DB
:100EB0003946019890472A2804D162690121019896
:100EC00090470125DFF888926269012101989047D7
:100ED000A0F130010A290AD24F45E5DC07EB870172
:100EE00000EB4107303FDFD445F01005ECE7E906A1
:100EF00001D46FF000476C280AD04C2814D0682821
:100F000015D06A280DD074281CD07A281AD01DE07C
:100F100062690121019890476C2802D045F00405D0
:100F200014E045F002050DE045F020050AE0626995
:100F3000012101989047682802D045F0080505E096
:100F400045F400656269012101989047C4E90157A1
:100F500065283DD019DC58287AD00CDC452837D0DC
:100F600004DC252826D0412831D131E046282FD075
:100F700047282CD12CE05B2877D0612828D0632823
:100F80007CD0642823D15AE0D1E06F2848D008DC17
:100F900066281DD067281BD0692821D06E2816D15D
:100FA00027E0702845D0732868D0752847D0782866
:100FB0000DD14DE0A1690B988847054625283FF4DF
:100FC00069AFE1690B9888476D1C3FF46AAFB4E0E4
:100FD00023466A466FF001000B99FFF789F99FE0FD
:100FE00045F040006060A80723464FF0000236D469
:100FF0003EE0E8077FF447AF2068011D21600068EC
:10100000290501D506701BE7290701D5068017E7DA
:10101000A90703D5F117C0E9006111E706600FE7E2
:1010200045F040006060A80723464FF0080216D440
:101030001EE040F60E0125EA0100606016E045F072
:1010400040006060A80723464FF00A0207D40FE073
:1010500045F040006060A80708D5234610226FF0D5
:1010600001000B99AFF300805AE007E023461022FD
:101070006FF001000B99AFF3008051E04FF00009D1
:101080004F464B46632802D05B2807D041E02079C9
:10109000C00601D40120A06001273AE06269012165
:1010A000019890475E2805D14FF0010962694946D1
:1010B00001989047216939B900210A46534643F8FF
:1010C0002120491C0829FADBB0B3216969B9C1178D
:1010D00000EBD16253110AEB830122F01F02821A46
:1010E00001200B68904003430B6062690121019865
:1010F00090475D28E8D1B9F1000F09D00020514692
:1011000051F82020D24341F82020401C0828F7DB6A
:1011100002AB224600976FF001000B99AFF30080FD
:1011200000280CDA401C08D1BBF1000F05D04FF0AD
:10113000FF300DB0BDE8F08FFFE74046F9E7E90763
:1011400001D108F1010806444FF0000B78E60000D9
:10115000CCCCCC0C7F2801D9002208E0064A02EB57
:101160005002C007127800D1120902F00F020120CC
:101170009040084070470000927A000810B504487B
:1011800000F05EF9BDE81040024800F059B90000D7
:10119000300100206001002070B5044600688168BD
:1011A000C943C90717D1816821F00101816000F0AE
:1011B0006DFE05460AE000BF00F068FE401B0228F5
:1011C00004D920688068C043C00706D020688068C2
:1011D000C043C007F0D0002070BDA06A40F01000EE
:1011E000A062E06A40F00100E062012070BD10B52D
:1011F0000146406A826A12F0500F05D0006A026B05
:10120000BDE8104008461047816A41F400718162D0
:1012100001688968C1F3424107290CD1017B51B9AA
:10122000816A21F480718162816AC90403D4816A70
:1012300041F00101816200F0FDF810BD10B5406A77
:10124000816A41F040018162C16A41F00401C162DA
:1012500000F0F2F810BD10B5406A00F0ECF810BDD7
:10126000F8B500260446009600688168C943C9079E
:101270002DD0816841F0010181601648164900684F
:10128000B0FBF1F000E0401E00900028FBD100F020
:10129000FDFD054616E000BF00F0F8FD401B0228EA
:1012A00010D920688068C043C0070BD0A06A40F006
:1012B0001000A062E06A40F00100E06284F824605F
:1012C0000120F8BD20688068C043C007E4D1002039
:1012D000F8BD00006C00002040420F00FEE7000057
:1012E000014800F077BB000090010020014800F0A9
:1012F00071BB00009804002030B590F840500124E4
:10130000AC40C56B6C60046863604368102B036875
:1013100003D099600068C26030BD9A600068C16007
:1013200030BD7047012000F0A3BC022000F0A0BC3B
:1013300072B6FEE770470000F8B50024009490F8FC
:1013400024202546012A12D0012280F824204A6850
:101350001F23072A0DD20668776B521E02EB82020A
:1013600093409F430B6893401F43776319E002202B
:10137000F8BD06680D2A0AD2376BD21F02EB820233
:1013800093409F430B6893401F43376309E0F76A1C
:101390000D3A02EB820293409F430B6893401F4338
:1013A000F7620A68072306680A2A0AD3F7680A3A26
:1013B00002EB420293409F438B6893401F43F760C8
:1013C00008E0376902EB420293409F438B689340E9
:1013D0001F4337610A68102A01D0112A20D1124B0D
:1013E00002689A4217D193681B0219D4936843F498
:1013F000000393600968102912D10C490C4A09684E
:10140000B1FBF2F101EB8101490000E0491E0091BE
:101410000029FBD104E0816A41F0200181620124AE
:1014200080F824502046F8BD002401406C000020C4
:1014300040420F007047704770470068C06C7047AB
:1014400010B5044600684168890626D501688907F9
:1014500023D5A16AC90603D4A16A41F40071A1622F
:101460008168C1F34241072910D1217B71B94168DC
:1014700021F020014160A06A20F48070A062A06A7F
:10148000C00403D4A06A40F00100A0622046FFF728
:10149000D1FF21686FF012000860206841680906DA
:1014A0002ED5016849072BD5A16AC90603D4A16AC4
:1014B00041F40051A1628168C1F30231072909D0CA
:1014C0004168490515D48168C1F34241072910D10B
:1014D000217B71B9416821F080014160A06A20F44C
:1014E0008050A062A06AC00503D4A06A40F0010049
:1014F000A0622046FFF71EFF21686FF00C00086015
:101500002068416849060DD50068C0070AD0A06A66
:1015100040F48030A062204600F094F821686FF01B
:101520000100086010BD00002DE9F0414FF00007F8
:1015300004003D467ED0A06A002628B9E66284F801
:101540002460204600F080F82046FFF725FEA16ABF
:10155000C90600D420B1A06A40F01000A06269E082
:10156000A16A21F4885141F00201A1626268E16937
:10157000237B0A4347EA43010A43A1684FF480777B
:10158000B94209D0012907D05FF0000194F814C0D6
:10159000BCF1010F02D00AE03946F7E7F3B1A36AC4
:1015A00043F02003A362E36A43F00103E36223688C
:1015B000D3F804C02CF4694C4CEA010CC3F804C005
:1015C00021688B68DFF870C003EA0C0313438B605B
:1015D000A168B9420BD0012909D00CE0DFF85CC04A
:1015E000A3690CEB43330B4343F40061DFE7218A2B
:1015F0000D05A5F580152168CB6A23F470032B43F4
:10160000CB62216889680E4B1940914208D1E6628D
:10161000A16A21F0020141F00101A162BDE8F0815F
:10162000A06A20F0020040F01000A062E06A40F0E2
:101630000100E0620120F1E7FDF7E1FF00E0FFFFBC
:10164000FE0E1FFF70470000F0B585B00025009525
:1016500001950295039506462B4C02682B48032101
:101660002B4B8027A2422CD1826942F40072826106
:10167000826902F400720492826942F0040282617B
:10168000806900F004000490FC20CDE90001694667
:10169000184600F0F9FA204C1E48C4E900058015F0
:1016A000A560C4E90370800060612020C4E90605DC
:1016B000204600F039FA08B1FFF73AFE346266625C
:1016C00018E0164CA2421DD1826942F48062826108
:1016D000826902F480620492826942F004028261AB
:1016E0008069CDE9007100F0040004906946184655
:1016F00000F0CAFA00221146122000F0F3FE122078
:1017000000F0E2FE05B0F0BD0024014000100240F0
:10171000000801400800024090010020002801401C
:1017200070B5044690F8240001280DD0012084F8FB
:1017300024002046FFF794FD02004FF0000005D082
:1017400084F82400104670BD022070BDA16A40F2EA
:101750000123994341F48071A1621F4D23681F4901
:10176000AB4218D10E6816F4702F14D0A66A46F456
:101770008016A6620E68760505D5A66A26F4005680
:1017800046F48056A662A66AF6040AD5E66A26F0F2
:101790000606E66206E0A66A26F48016A6625E6881
:1017A000E9E7E06284F824006FF002001860206826
:1017B0008368C3F34243072B05D1A84208D10968C7
:1017C00011F4702F04D0816841F480118160B9E771
:1017D000816841F4A001F9E7002801400424014098
:1017E0002DE9F047894604463B4900683B4F0E1DF2
:1017F0009046884201D0B84207D1306810F4702F6B
:1018000003D001252846BDE8F08794F8240001287C
:101810000CD0012084F824002046FFF721FD0500AC
:101820004FF0000004D084F82400EBE70220EAE740
:10183000A16A40F60162914341F48071A16221687E
:10184000B94218D1326812F4702F14D0A16A41F451
:101850008011A1623168490505D5A16A21F40051C2
:1018600041F48051A162A16AC9040AD5E16A21F05C
:101870000601E16206E0A26A22F48012A2624968CF
:10188000E9E7E06284F82400216A15488862216A49
:101890001448C862216A1448086321686FF0020086
:1018A00008602068816841F4807181602168434646
:1018B0004A464C31206A00F065F920688168C1F31E
:1018C00042410729816803D041F48011816099E782
:1018D00041F4A001FAE70000002401400028014083
:1018E000EF110008571200083D12000810B590F8DB
:1018F00021100022022905D00421816380F82020D4
:10190000012010BD01680B6823F00E030B60016815
:101910000B6823F001030B6090F84030C46B012189
:1019200001FA03F3636080F8211080F8202010464C
:1019300010BD000010B590F821100024022903D03A
:101940000421816301243DE001680A6822F00E024F
:101950000A6001680A6822F001020A601A4A0168F6
:10196000914201D1012121E0174A1432914201D163
:1019700010211BE0144A2832914201D1891515E04B
:10198000114A3C32914201D189140FE00E4A503283
:10199000914202D14FF4803108E00B4A6432914207
:1019A00002D14FF4801101E04FF08071064A083AED
:1019B0005160012180F82110002180F82010416B36
:1019C00001B18847204610BD0800024090F8210070
:1019D000704700002DE9F05FC16B0C6801680B686F
:1019E000D0F840C0042202FA0CF2494DDFF824A1DD
:1019F000494E4A4FDFF828B1DFF828E122422CD0C7
:101A00005A072AD50A68920603D40A6822F004020B
:101A10000A600168A94201D1042219E0514501D1AF
:101A2000402215E0B14202D14FF4806210E0B94289
:101A300002D14FF480420BE0594502D14FF480228D
:101A400006E0714502D14FF4800201E04FF0806260
:101A50002F4908394A60C16A3BE04FF0020808FA92
:101A60000CF818EA040F4FF000094FF0010235D0CE
:101A70005FEA837832D50B689B0605D40B6823F0A8
:101A80000A030B6080F821200168A94201D10222DB
:101A900019E0514501D1202215E0B14202D14FF4A5
:101AA000007210E0B94202D14FF400520BE05945E8
:101AB00002D14FF4003206E0714502D14FF400121A
:101AC00001E04FF00072124908394A6080F8209016
:101AD000816A00291AD0BDE8F05F0847082505FA99
:101AE0000CF5254212D01B0710D50B6823F00E030E
:101AF0000B6090F84010C36B02FA01F159608263E9
:101B000080F8212080F82090016BE2E7BDE8F09F8B
:101B1000080002401C000240300002404400024025
:101B2000580002406C00024030B528B308C8134981
:101B300014221944B1FBF2F18900C1631049816399
:101B4000022141771A6843F6F0718A43D0E9001404
:101B50002143D0E902452C432143046921434469D0
:101B6000214384692143114319600021416301220B
:101B700042770177084630BD012030BDF8FFFDBF38
:101B80000000024070B5044690F8200000250128AE
:101B90000CD0012084F8200094F821600020012E50
:101BA00006D084F820000225284670BD022070BDB2
:101BB000022684F82160A0632068066826F00106EA
:101BC00006602046FFF798FBE06A0028206801685D
:101BD00002D041F00E0106E021F00401016020680E
:101BE000016841F00A0101602068016841F00101CB
:101BF0000160D9E770B5044600F048F90546601C5D
:101C000002D004480078044400F040F9401BA04290
:101C1000FAD370BD6000002010B5134C02280DD01F
:101C200001280AD111480178D9B1002101700121A0
:101C3000204600F019F90028F9D010BD0B493439BD
:101C4000088A0028F9D10889401C088101200882EF
:101C500004F076FA0221204600F006F90028F9D0B7
:101C600010BD0121E2E7000000080140A8000020AB
:101C7000044910B50A68024202D00860FFF7CCFFA1
:101C800010BD0000140401402DE9F84FDFF8B891B1
:101C9000002409F1040A0AF1040B23460F270BF173
:101CA000040EC9E00125A5402A40AA427DD1674E15
:101CB000D1F804C0ACEB0608B44532D014DCBCF15A
:101CC000030F3AD009DCBCF1000F2AD0BCF1010FA0
:101CD0001CD0BCF1020F31D11DE0BCF1110F17D0A7
:101CE000BCF1120F2AD119E0B8F5881F19D006DC13
:101CF000B8F5803F15D0B8F5801F1FD111E0B8F5B9
:101D0000001F0ED0B8F5041F18D10AE0CB6815E00B
:101D1000CB681B1D12E0CB6808330FE0CB680C3397
:101D20000CE08B682BB1012B4FF0080303D0456109
:101D300004E0042302E0056100E00023FF2A01D84B
:101D4000064601E000F104064FEA840501D9A5F139
:101D50002005D6F8008007FA05FC28EA0C0803FAEB
:101D600005F548EA0508C6F800804D68ED0062D523
:101D7000374DAE6946F00106AE61AD6924F0030649
:101D800005F001050095334D06EB050CDCF8085015
:101D9000A607360F07FA06F825EA0805DFF8B88027
:101DA000404503D14FF0000817E044E0DFF8AC8075
:101DB000404502D14FF001080FE0DFF8A480404514
:101DC00002D14FF0020808E0DFF89880404502D1C8
:101DD0004FF0030801E04FF0040808FA06F848EA5B
:101DE0000508CCF808804D68D9F80060ED034D4631
:101DF00001D5164300E096432E604D68DAF8006086
:101E0000AD03554601D5164300E096432E604D685C
:101E1000DBF80060ED025D4601D5164300E0964315
:101E20002E604D68DEF80060AD02754601D51643A0
:101E300000E096432E60641C0D682A46E5407FF45E
:101E400031AFBDE8F88F0000000401400000111020
:101E5000001002400000014000080140000C014059
:101E600000100140001401408068084000D00120AB
:101E70007047C26821EA02030A4043EA0241016155
:101E800070470AB1016170470904FBE701488068A7
:101E90007047000060000020704770472DE9F04750
:101EA000026800215368C66A90F83E4090F83D50A1
:101EB000102C12D0402C10D0046C002C7DD0546912
:101EC000E443A6077AD4DE43B60577D4036C03B1A6
:101ED0009169BDE8F04702F0B9B8976951694FF4CC
:101EE0002A0CC9435FEAC1784FF02A4904D06645FD
:101EF0002AD04E4528D010E0DE43B6050DD4C16A85
:101F0000614501D1012103E0C16A494501D10821A0
:101F1000C162BDE8F04701F0AFBF0E0716D4DE4343
:101F2000B60513D4416CC9B21161416B09B1896A1C
:101F300029B9816B002907D0896A002904D000687B
:101F4000416841F400614160BDE8F0878E0706D426
:101F5000DE43B60503D4BDE8F04701F0E1BEFE4321
:101F6000526876074FEA02521DD4002AECDB0A06BB
:101F700008D4DA43520505D4490705D5BDE8F04732
:101F800001F072BE4907DFD4D9438905DCD4212D85
:101F900005D0402CD8D1BDE8F04701F0B3BFBDE873
:101FA000F04701F01FBE002ACEDB4A060BD4DA430D
:101FB000520508D4490708D501E00DE00EE0BDE860
:101FC000F04701F09BBD4907BED4D9438905BBD476
:101FD000BDE8F04701F029BD916970E7E10606D43C
:101FE000D943890503D4BDE8F04702F053B828214E
:101FF000212D27D0292D25D0650655D4DD436D052B
:1020000052D4640752D590F83D30448D002C9BD0BB
:102010001269446A2270426A521C4262428D521E08
:102020004285428D002A8FD12A2B8DD102685368B8
:1020300023F4806353602222026380F83D1000F095
:10204000E9F981E7250623D4DD436D0520D4640733
:1020500020D590F83D30448D002CF2D0446A24788D
:102060001461426A521C4262428D521E4285428D68
:10207000002AE6D1292BE4D10268536823F4806357
:1020800053602122026380F83D1000F0C4F95BE741
:102090006107D6D4D9438905D3D4418D0029D0D046
:1020A000416A097811610AE06107CAD4D9438905F8
:1020B000C7D4418D0029C4D01169426A1170416AA8
:1020C000491C4162418D491E41853DE77047000032
:1020D00070B5040025D094F83D00002520B984F89F
:1020E0003C50204600F056F9242084F83D0020683A
:1020F000016821F0010101602068016841F400419C
:1021000001602068016821F40041016000F028FBB3
:102110004D4A6168914201D84C4900E04C498842DF
:1021200001D2012070BD4B492368B0FBF1F15E681C
:1021300026F03F060E435E606368934206D94FF473
:10214000967359434FF47A73B1FBF3F12368491C3A
:102150001E6A26F03F06314319626168914210D829
:102160004900401EB0FBF1F2521CC2F30B02042ADC
:1021700001D2042022E0B0FBF1F0401CC0F30B00C0
:102180001CE0A268F2B301EBC10303EB0116431E8E
:10219000B3FBF6F35B1C43F480431B0549D092B3B9
:1021A00001EBC10202EB0111401EB0FBF1F0401C3B
:1021B000C0F30B0040F4804040F400402168CA693D
:1021C0004CF6FF739A431043C861D4E907100143EA
:1021D0002068026822F0C00211430160D4E90301C3
:1021E00001432068826848F2FF339A4311438160BB
:1021F000D4E9050108432168CA6822F0FF021043B0
:10220000C86001E00EE016E02068016841F00101BD
:1022100001602564202084F83D00256384F83E5049
:10222000002070BD01EB4106431EB3FBF6F35B1CBF
:10223000B3E70120C2E701EB4101401EB0FBF1F022
:10224000401CC0F30B00B7E7A086010080841E008D
:1022500000093D0040420F007047704770477047CB
:10226000704700002DE9FF4F83B09A46DDE91197D2
:1022700093460446DDF84080FFF708FE054694F8D3
:102280003D0020287FD11923012240492046009596
:1022900001F0D4FF002876D194F83C00012872D0D8
:1022A000012084F83C0020680168C90703D1016857
:1022B00041F0010101602068016821F400610160C2
:1022C000212084F83D00402084F83E00002626644A
:1022D000C4F82480A4F82A90608D20852C48E06200
:1022E000CDE9007553465A462046049901F05AFE3E
:1022F00070B930E02A463946204602F01EF858B13F
:10230000206C042804D12068016841F40071016048
:10231000012007B0BDE8F08F606A2168007808618D
:10232000606A401C6062218D491E89B22185628DE0
:10233000521E628522685369DB435B070BD469B187
:1023400000781061606A401C6062208D401E20850C
:10235000608D401E6085208D0028CBD12A463946ED
:10236000204601F045FF0028CAD154F83D0B016812
:1023700041F400710160202004F81E09E6776677B9
:102380000020C6E7FFE70220C3E7000002001000BC
:102390000000FFFF10B586B000210091019102916D
:1023A00003910068174988422AD1174CA06940F070
:1023B0000800A061A069694600F0080004904FF48D
:1023C0004070009012200190032003900F48FFF707
:1023D0005BFC0F48416841F0E06141F0020141605F
:1023E000E06940F40010E061E069002200F40010B0
:1023F000049001211F2000F075F81F2000F064F800
:1024000006B010BD0054004000100240000C014016
:10241000000001407047704702488168027811440B
:102420008160704760000020074810B5016841F0E6
:1024300010010160032000F075F80F2000F006F88D
:1024400000F024F8002010BD0020024070B50D4DB2
:1024500004464FF47A712878B1FBF0F00A49096814
:10246000B1FBF0F000F062FB48B9102C07D200225B
:102470002146501E00F036F800206C6070BD01202F
:1024800070BD0000600000206C0000200C4808B502
:10249000816941F001018161816901F001010091CF
:1024A000C16941F08051C161C06900F08050009065
:1024B0000448416821F0E06141F00071416008BDCD
:1024C0000010024000000140002809DB00F01F025C
:1024D000012191404009800000F1E020C0F8001186
:1024E00070470000F0B40E4B1B680C46C3F3022388
:1024F000C3F10705042D00D90425191D072901D2B0
:10250000002300E0DB1E012606FA05F1491E2140EA
:1025100099409E40761E16403143F0BC02F092BEB8
:102520000CED00E0064900F0070208684FF6FF03D3
:10253000184040EA0220034A104308607047000038
:102540000CED00E00000FA052DE9F843054600789F
:10255000354CC00754D0E0690026C00008D4E069BB
:1025600040F08050E061E069012600F0805000906A
:102570002E480168C90512D40168804641F4807173
:102580000160FFF783FC074605E000BFFFF77EFC14
:10259000C01B642823D8D8F80000C005F6D5206AEF
:1025A00010F4407021D0A98801F4407181421CD000
:1025B000206A1F49012220F440700A6000220A604C
:1025C0002062C00711D0FFF761FC074641F288384E
:1025D00008E000BFFFF75AFCC11B414502D90320A8
:1025E000BDE8F883206A8007F4D5206A696820F482
:1025F0004070084320621EB1E06920F08050E06125
:102600002878800705D56068A96820F44040084311
:1026100060602878C00605D56068E96820F480000D
:10262000084360600020DBE70010024000700040BB
:10263000400442422DE9F0470F46050061D0434E69
:10264000306800F00700B84209D2306820F0070077
:1026500038433060306800F00700B84251D1286834
:102660003B4C810712D5400703D5606840F4E06019
:1026700060602878000703D5606840F460506060AF
:102680006068A96820F0F000084360602878C007FF
:1026900028D06868012810D02168022810D0890746
:1026A00000292EDA616821F0030101436160FFF720
:1026B000EDFB804641F288390DE021688903EFE7A0
:1026C0008901EDE7FFF7E2FBA0EB0801494502D9DC
:1026D0000320BDE8F0876068696800F00C00B0EB8B
:1026E000810FEFD1306800F00700B8420BD9306895
:1026F00020F0070038433060306800F00700B8422F
:1027000001D00120E5E72878400705D56068E96831
:1027100020F4E060084360602878000706D5606810
:10272000296920F4605040EAC100606000F038F888
:102730006168084AC1F30311515CC840064908604A
:1027400006480068FFF782FE0020C2E70020024032
:10275000001002407A7A00086C000020640000201B
:102760000448054900684968044AC1F30221515CE4
:10277000C84070476C000020001002408A7A0008B0
:102780000448054900684968044AC1F3C221515C04
:10279000C84070476C000020001002408A7A000890
:1027A00012A185B00FC98DE80F0014A0144A00686B
:1027B00004905168134801F00C03042B10D0082B2F
:1027C0000ED1C1F38343C9031DF803000AD5516834
:1027D00004AAC1F34041515C0A4A5043B0FBF1F0F6
:1027E00005B0704708494843FAE7000002030405B2
:1027F000060708090A0B0C0D0E0F1010010200004D
:102800000010024000127A0000093D002DE9F84F47
:10281000040070D02078C04DC00749D06868C0F36C
:102820008100012807D06868C0F38100022809D11F
:102830006868C00306D52868800339D56068002819
:10284000E7D035E06068B0F5803F0BD010B1B0F54F
:10285000A02F11D0286820F480302860286820F448
:10286000802002E0286840F480302860606890B1E1
:10287000FFF70CFB06460AE0286840F48020286039
:10288000F0E700BFFFF702FB801B642873D82868BD
:102890008003F7D50CE0FFF7F9FA064605E000BF24
:1028A000FFF7F4FA801B6428F0D828688003F7D477
:1028B00020789A4E80074FF001094FF0000839D573
:1028C000686810F00C0F07D06868C0F38100022818
:1028D00009D16868C00306D42868800714D5206928
:1028E000012808D110E02069B0B1C6F80090FFF7C8
:1028F000CDFA074605E00AE1FFF7C8FAC01B022837
:10290000C4D828688007F7D52868616920F0F800E6
:1029100040EAC10028600DE0C6F80080FFF7B6FA73
:10292000074604E0FFF7B2FAC01B022823D8286844
:102930008007F7D4207800072CD57948A169D9B150
:10294000C0F80090FFF7A2FA074604E0FFF79EFAEE
:10295000C01B02280FD8686A8007F7D571484FF46A
:10296000FA510068B0FBF1F0009000BF0098411EE2
:102970000091FAD20EE080E0C0F80080FFF786FAFE
:10298000074604E0FFF782FAC01B022875D8686A80
:102990008007F7D42078400760D5E8690027C00099
:1029A00008D4E86940F08050E861E869012700F048
:1029B000805000905C480168C90513D401688346C3
:1029C00041F480710160FFF761FA824606E000BFC2
:1029D000FFF75CFAA0EB0A0064284ED8DBF8000091
:1029E000C005F5D5E06801280AD008B1052813D044
:1029F000286A20F001002862286A20F0040002E022
:102A0000286A40F001002862E06841F2883B98B1F2
:102A1000FFF73CFA82460BE0286A40F00400286287
:102A2000EEE700BFFFF732FAA0EB0A0159455AD88A
:102A3000286A8007F6D50CE0FFF728FA824605E001
:102A4000FFF724FAA0EB0A0159454CD8286A800701
:102A5000F6D41FB1E86920F08050E861E06988B3DE
:102A60006968C1F38101022944D00228C6F8608058
:102A700004D0FFF70BFA044638E034E0FFF706FA1B
:102A8000074604E0FFF702FAC01B02282BD828688B
:102A90008001F7D4206AB0F5803F05D16868A1684D
:102AA00020F4003008436860D4E9080108436968ED
:102AB00021F4741108436860C6F86090FFF7E6F9E6
:102AC000044606E025E000BFFFF7E0F9001B0228FE
:102AD00009D828688001F7D51BE000BFFFF7D6F9B9
:102AE000001B022802D90320BDE8F88F2868800166
:102AF000F4D40EE00128F7D06868226A00F480312F
:102B0000914204D1616A00F47010884201D0012022
:102B1000EAE70020E8E7000000100240000042421F
:102B2000800442426C0000200070004010B5401E3E
:102B3000B0F1807F01D3012010BD4FF0E02460612F
:102B40000F21601702F07EFB0020A06107202061AA
:102B5000002010BD7047704710B590F83C20012A46
:102B600022D0012280F83C20CA688C6822F440728E
:102B700022434C6822F4806222430C6822F40062F3
:102B800022430C6922F4805222434C6922F4005201
:102B90002243C969002322F480420A4301684A643F
:102BA00080F83C30002010BD022010BD70B590F8B8
:102BB0003C20012A26D0012480F83C40022280F8E3
:102BC0003D2003685A689D6822F070060A68324307
:102BD0005A600D4B02689A4208D0B2F1804F05D07E
:102BE0000A4B9A4202D00A4B9A4204D1496825F016
:102BF00080031943916080F83D40002180F83C102B
:102C0000084670BD022070BD002C01400004004049
:102C10000008004010B5040003D094F83D0010B146
:102C200007E0012010BD002084F83C00204600F0A1
:102C30001FF8022084F83D00211D206801F0ECFF00
:102C4000012084F8460084F83E0084F83F0084F8B0
:102C5000400084F8410084F8420084F8430084F87E
:102C6000440084F8450084F83D00002010BD0000B9
:102C700008B5204A01682048914207D1816941F492
:102C800000618161806900F400601BE0B1F1804F58
:102C900011D01A4A914217D1C16941F00201C161B4
:102CA000C069002200F00200009011461D20FFF7CD
:102CB00019FC1D2019E0C16941F00101C161C06921
:102CC00000F00100009008BD0D4A9142FBD1C1699E
:102CD00041F00401C161C069002200F004000090CD
:102CE00011461E20FFF7FEFB1E20BDE80840FFF73F
:102CF000EBBB0000002C014000100240000400402B
:102D00000008004090F83D10012901D001207047D3
:102D1000022180F83D1000680B49884208D0B0F1CC
:102D2000804F05D00949884202D00949884204D120
:102D3000816801F00701062903D0016841F0010113
:102D40000160002070470000002C0140000400409A
:102D50000008004090F83D10012901D00120704783
:102D6000022180F83D100168CA6842F00102CA6081
:102D700000680B49884208D0B0F1804F05D009495E
:102D8000884202D00849884204D1816801F00701D5
:102D9000062903D0016841F001010160002070475D
:102DA000002C0140000400400008004070B50446BB
:102DB00090F83C00012817D0012584F83C500220EF
:102DC00084F83D002068826822F0770222F47F4276
:102DD00082600868502830D00DDC20284DD005DCFA
:102DE00098B310283BD148E0022070BD302844D071
:102DF000402834D139E0602828D0702806D0B0F5BA
:102E0000805F2CD0B0F5005F29D10AE0CB68D1E912
:102E10000121206801F043FF2068816841F07701BB
:102E200009E0CB68D1E90121206801F038FF206872
:102E3000816841F48041816011E0CA684968206876
:102E400001F0E2FF5021206807E016E0CA684968F7
:102E5000206801F0EAFF6021206801F02AFF84F871
:102E60003D50002084F83C0070BDCA684968206865
:102E700001F0CAFF40212068EFE7226801461046B2
:102E8000EBE7704770B50446006801694FF0000534
:102E9000C943890715D4C168C943890711D4E91EFC
:102EA000016101202077206880698007204602D0D8
:102EB000FFF7E7FF04E000F0DFF8204600F06EF9CE
:102EC000257720680169C943490717D4C168C943F8
:102ED000490713D46FF004010161022020772068B4
:102EE000806910F4407F204602D0FFF7CAFF04E05B
:102EF00000F0C2F8204600F051F9257720680169FA
:102F0000C943090716D4C168C943090712D46FF031
:102F100008010161042020772068C06980072046ED
:102F200002D0FFF7AEFF04E000F0A6F8204600F064
:102F300035F9257720680169C943C90617D4C168E6
:102F4000C943C90613D46FF010010161082020772E
:102F50002068C06910F4407F204602D0FFF791FF3F
:102F600004E000F089F8204600F018F92577206881
:102F70000169C943C90708D1C168C943C90704D158
:102F8000891E0161204600F059F920680169C94392
:102F9000090609D4C168C943090605D46FF0800148
:102FA00001612046FFF7D6FD20680169C943490643
:102FB00009D4C168C943490605D46FF040010161D5
:102FC000204600F0A9F920680169C94389060BD49D
:102FD000C168C943890607D46FF02001016120460A
:102FE000BDE87040FFF7B7BD70BD000010B586B0FA
:102FF000002100910191029103911B4C03681B4930
:1030000002221B48A34211D18B6943F004038B6158
:103010008969039201F0040104914FF44071CDE9F4
:1030200000126946FEF730FE06B010BDB3F1804FC6
:10303000FAD18B6943F004038B618969039201F033
:10304000040104914FF40041CDE900126946FEF7F6
:103050001BFE0848416821F4407141F0E06141F4F1
:1030600080714160E0E70000002C01400010024048
:103070000008014000000140704770B5044690F818
:103080003C000D4601280AD0012084F83C0042B1E2
:10309000042A18D0082A2AD00C2A4DD139E002205F
:1030A00070BD206801F00EFE2068816941F00801C2
:1030B00081612068816921F0040181612068816952
:1030C0002A69114311E0206801F024FE206881691B
:1030D00041F4006181612068816921F4806181612E
:1030E000206881692A6941EA0221816124E020681F
:1030F00001F03CFE2068C16941F00801C16120680F
:10310000C16921F00401C1612068C1692A691143C4
:1031100011E0206801F056FE2068C16941F40061A9
:10312000C1612068C16921F48061C1612068C16901
:103130002A6941EA0221C161002084F83C0070BD87
:1031400010B5040003D094F83D0010B107E0012051
:1031500010BD002084F83C00204600F01EF802203C
:1031600084F83D00211D206801F056FD012084F8FF
:10317000460084F83E0084F83F0084F8400084F85C
:10318000410084F8420084F8430084F8440084F845
:10319000450084F83D00002010BD704770470000D6
:1031A00010B50446022249B104290ED0082913D0D3
:1031B00094F84100012816D0012010BD94F83E007B
:1031C0000128F9D184F83E200FE094F83F0001284F
:1031D000F2D184F83F2008E094F840000128EBD1B8
:1031E00084F8402001E084F841200122206801F0A9
:1031F00049FD0F492068884203D1426C42F40042E5
:1032000042642068884208D0B0F1804F05D0094957
:10321000884202D00849884204D1816801F0070140
:10322000062903D0016841F001010160002010BDB2
:10323000002C0140000400400008004010B5044686
:10324000304884420FD13048FEF76AFA2E48FEF724
:10325000F4F8FDF7C2FB2D49486302F0A5FF2B48A7
:10326000203802F039FE2A48844249D127492948AA
:1032700054394A89012A02D14268521E4260CA89E1
:103280000023012A07D18268521E8260002A02DCD4
:10329000CB81642282600A88012A07D1C268521E4B
:1032A000C260002A02DC0B802322C2608A8932B904
:1032B0000269521E0261002A01DC01228A818A8889
:1032C0001E24012A02D0032A09D00FE04269521EAF
:1032D0004261002A0ADC02228A80446106E0826997
:1032E000521E8261002A01DC8B8084610A8A012AD5
:1032F00006D1C269521EC261002A01DC0B82C46180
:1033000010BD0000B802002060010020C8000020AD
:1033100000030020100000207047704710B50446DD
:103320000068416994F83D20C1F3C011212A0BD1F6
:1033300051B1416921F080014161606B08B1FEF734
:10334000D5FA204601F002FE2068416994F83E203B
:10335000C1F38011222A0BD151B1416921F0400102
:103360004161A06B08B1FEF7C1FA204601F0D6FD1D
:10337000002010BD70470000F8B5026804461068D0
:10338000D168536910F00F0F4FF0000553D003F0D0
:10339000010601F4907737435FD0C20705D0CA0514
:1033A00003D5226C42F001022264420705D5DA07F8
:1033B00003D0226C42F002022264820705D5DA07AC
:1033C00003D0226C42F004022264020707D501F008
:1033D0002002324303D0226C42F008022264226CA5
:1033E000002A34D0800604D5880602D5204601F094
:1033F000B6FD20684069216CC0F38010090700D435
:1034000030B3204601F08AFD2068416949061BD58A
:10341000416921F040014161A06BA8B15849416365
:10342000A06BFEF787FA002811D0A06B416B01B0AA
:10343000BDE8F040084783060FD58B060DD5204622
:10344000BDE8F84001F08BBD2046FFF793FFF8BDC3
:103450002046FFF78FFF2564F8BD266B2023012E41
:1034600052D1C60650D5CE064ED510685068009091
:10347000506940062AD5A16B086840680004000C1A
:10348000EAD0A68D8642E7D9E0858869202818D041
:10349000D06820F48070D0602068416921F001017B
:1034A00041612068416921F04001416184F83E306A
:1034B00025632068C16821F01001C160A06BFEF790
:1034C00015FAA08DE18D401A81B219E0A08DE18D31
:1034D000401A81B2E08D0028BED00029BCD0D0684F
:1034E00020F49070D0602068426922F001024261AD
:1034F00084F83E3025632068C26822F01002C26062
:103500002046FFF70AFFF8BD05062BD50D0629D585
:1035100094F83D002128F6D1A068B0F5805F01D174
:103520002069B0B1206A411C21622168007848609E
:10353000E08C401E0004000CE084E4D12068C168E7
:1035400021F08001C1602068C16841F04001C16084
:10355000F8BD206A0088C0F308005060206A801C13
:103560002062E5E74006F3D54806F1D5D16820464C
:1035700021F04001D16084F83D3000F02CF9F8BD15
:103580004F4E000870B5040004D094F83D000025AB
:1035900010B106E0012070BD84F83C50204600F0D8
:1035A00023F8242084F83D002068C16821F40051EC
:1035B000C160204601F02EFD2068016921F4904190
:1035C00001612068416921F02A0141612068C168D8
:1035D00041F40051C1602564202084F83D0084F846
:1035E0003E00002070BD0000F0B585B000240094BE
:1035F0000194029403940546374F03683749022229
:103600000320374EBB4242D18B6943F480438B6128
:103610008B6903F4804304938B6943F008038B6147
:103620008969039001F0080104914021CDE900125D
:1036300069463046FEF728FB8027CDE900746946CD
:1036400030460294FEF720FB2648416841F0E061D5
:1036500041F004014160254E2348C6E90004C6E953
:10366000024734617461B4613046F461FEF75CFA7C
:1036700008B1FDF75DFEAE6300221146252075629C
:10368000FEF730FF2520FEF71FFF05B0F0BD184DF7
:10369000AB42FAD1CB6943F48023CB61CB6903F40D
:1036A000802304938B6943F008038B61896903903D
:1036B00001F0080104912915CDE900126946304650
:1036C000FEF7E2FAE814CDE90004694630460294B8
:1036D000FEF7DAFAD9E70000003801400010024096
:1036E000000C0140000001405800024098040020F6
:1036F0000048004090F83E30202B0ED159B152B115
:1037000090F83C30012B08D0012380F83C30002396
:10371000036301F0DBBC0120704702207047704753
:10372000704700002DE9F843044690F83D001F461D
:1037300016460D4620284CD1C5B1BEB194F83C00C8
:10374000012846D0012084F83C004FF00008C4F85E
:103750004080212084F83D00FEF798FBA684814636
:10376000E684A068B0F5805F03D004E00120BDE8E6
:10377000F883206928B12E465FF0000584F83C806C
:103780000EE00026FAE78021204601F0D7FCA0B920
:10379000AEB116F8010B21684860E08C401EE08451
:1037A000E08C4B464FF0000200970028EBD14FF021
:1037B0004001204601F0C2FC30B10320D7E735F8C4
:1037C000020BC0F30800E6E7202084F83D0000204B
:1037D000CDE70220CBE77047FEE700000148FEF787
:1037E0005DBB0000D401002038B5406A002190F88C
:1037F0003D202B4B46F2A8141B68B3FBF4F3C3EB3C
:10380000C30303EB830300933BB15B1E0093036888
:103810001B689B0505D5009BF6E7036C43F020036E
:103820000364436B03B19962836B03B199620368CC
:103830001C6824F480641C604185436B03B15963A8
:10384000836B03B1596303681C6824F001041C6096
:1038500090F83D402023602C0BD0282434EA02024B
:103860000FD080F83D3080F83E1000BFFEF72EFCF0
:1038700038BD80F83D3080F83E100164FEF70CFB47
:1038800038BD0268136843F00103136002681368CF
:1038900043F480631360016380F83D40E6E7000075
:1038A0006C00002070B5044690F83D0094F83E107E
:1038B000102901D0402906D1222804D121680A68A4
:1038C00022F400620A60282131EA00024FF000056C
:1038D0004FF0200626D021684968090505D46028E4
:1038E00003D084F83D6084F83E5025632068416829
:1038F000090537D5416821F400614160606B3D499D
:1039000090F82120012A11D04163606BFEF712F874
:1039100038B32068016821F00101016084F83D603E
:10392000606B1CE0256384F83D10DFE7A06B41630A
:10393000A06BFDF7FFFFA0B120684169C9434906AC
:1039400005D40069616A0870606A401C6062206882
:10395000016821F00101016084F83D60A06B416BBA
:10396000884710E094F83D10602910D04169C943A0
:10397000490605D40069616A0870606A401C60628B
:103980002046FEF7A3FB206CC1071CD115E084F88C
:103990003D6025644169C943490605D40069616AEF
:1039A0000870606A401C60622068016821F00101B3
:1039B00001602046FEF770FAE5E7810703D441076E
:1039C00001D4000704D52068416821F4E06141601A
:1039D00094F83D00216C49070BD5282809D10648E9
:1039E000E062256384F83D6084F83E502046FEF78F
:1039F00033FC70BDE93700080000FFFF01684A6929
:103A0000D24352050FD46FF480624A61002140F81E
:103A1000301F202242738173026942F00402026166
:103A20000173012070470020704710B5C26A438DB2
:103A30000168042B06D0438D032B08D0438D022B45
:103A40001DD012E04A6822F480624A600CE04B68A4
:103A500023F480634B60042A06D0022A04D0016854
:103A60000A6822F480620A6001680969426A11707A
:103A7000416A491C4162418D491E418510BD012AA0
:103A800030D0102A2ED0042A30D0022A2ED00A6834
:103A900042F400720A6001680969426A1170416A61
:103AA000491C4162428D521E4285026812690A70A9
:103AB000416A491C4162418D491E418501684A683D
:103AC00022F440724A60202180F83D1090F83E2098
:103AD0000021402A80F83E100CD012210163FEF72D
:103AE000BCFB10BD0A6822F48062D3E70A6842F486
:103AF0008062CFE70163FEF7B2FB10BD38B590F8E6
:103B00003D10222914D1418D032912D90168096978
:103B1000426A1170416A491C4162418D491E4185CA
:103B2000418D032904D10068416821F4806141601E
:103B300038BDC26A022AFBD0012901D00029F7D181
:103B4000274946F2A81300220968B1FBF3F101EB03
:103B50008101009101682023009C641E009422D002
:103B60000C68A405F8D40C6824F480640C60016827
:103B70004C6824F4E0644C6001680969446A21706F
:103B8000416A491C4162418D491E418580F83D30A2
:103B900090F83E1080F83E2040291DD0122101638C
:103BA000FEF75BFB38BD046C44F0200404644C68F1
:103BB00024F4E0644C6001680969446A2170416A38
:103BC000491C4162418D491E418580F83D3080F895
:103BD0003E20FEF77BFA38BD0263FEF740FB38BD9E
:103BE0006C00002010B5C26A90F83D1021290BD15D
:103BF000418D51B1416A026809781161416A491CDD
:103C00004162418D491E418510BD20230021082AB3
:103C100013D0202A11D012F5803F0ED002685468CC
:103C200024F4E06454601122026380F83E1080F8AE
:103C30003D3000BFFEF712FB10BD0268546824F44B
:103C4000E06454600268146844F400741460016312
:103C500080F83D3090F83E2080F83E10402AE9D1AF
:103C6000FEF7FEFA10BD000010B590F83D1090F878
:103C70003E30C26A048DB4B1212903D0402B11D14A
:103C800022290FD1418DE1B390F83E10402942D056
:103C9000416A026809781161416A491C4162418D9B
:103CA000491E418510BD2129E8D120230021082A81
:103CB00013D0202A11D012F5803F0ED0026854682C
:103CC00024F4E06454601122026380F83E1080F80E
:103CD0003D3000BFFEF7C2FA10BD0268546824F4FC
:103CE000E06454600268146844F400741460016372
:103CF00080F83D3090F83E2080F83E10402AE9D10F
:103D000000E002E0FEF7ACFA10BD0068416821F463
:103D10008061416010BDBDE8104000F0F3B80000C4
:103D200078B590F83E50C26A046B90F83D6000236D
:103D30000168222E73D1066D0EB9402D6FD0056D2E
:103D40001DB90569B5F5404F1BD0458D95B3468D1E
:103D5000484D012E20D0448D022C4DD00C6844F4E7
:103D600080640C6001684C68240579D5AA4273D040
:103D7000012A71D0082A6FD0102A6DD0202A6BD06A
:103D80006EE04A698A6900920A6842F480720A60A9
:103D9000016D491C016578BDAA4214D10A6822F45C
:103DA00080620A6001684A68120504D50A6822F434
:103DB000806217E0FFE74A698A6900920A6842F464
:103DC00000720A6050E0082A10D0202A0ED0122C6F
:103DD0000AD0042A03D0022A01D0102AE6D10A68A8
:103DE00042F480620A603BE0012ADFD00A6822F4D4
:103DF00080620A600168DEE7042A11D0022A0FD02F
:103E0000102A0DD00C6844F400640C6001684C6901
:103E10008C6900940C6824F480640C6008E025E050
:103E20000C6844F480640C6001684C6989690091F5
:103E300001684C68240517D5AA4207D0012A05D08D
:103E4000082A03D0102A01D0202A0DD14A6842F452
:103E500080524A6008E0FFE74A6842F480524A60B4
:103E600001684A6989690091036578BD4869886974
:103E7000009078BD0000FFFF90F83E10402910D060
:103E80000169B1F5804F19D0016DA9B3016D012908
:103E900010D1416C5FF0F10201F4407142EAD1119E
:103EA00006E0016D0029416C05D0C9B241F0010165
:103EB00000680161704701F0FE01F9E790F83D10DC
:103EC0002129416C09D0C9B241F001010268116198
:103ED000416B29B1896A49B902E001F0FE01F5E7B9
:103EE000816B0029E6D0896A0029E3D00068416827
:103EF00041F4006141607047FFE7416CF02201F43A
:103F00004071CBE710B590F83D10026D22B3026D01
:103F1000012A2FD0026D022A1DD122292FD0428DD5
:103F20000AB1212933D0428D002A14D1212912D17E
:103F300001684A6822F4E0624A6001680A6842F453
:103F400000720A6000210163202280F83D2080F881
:103F50003E10FEF785F910BDC16C0129816C02D0BD
:103F6000C1F3072108E00268C9B21161016D891C23
:103F7000016510BD816CC9B20268116104E001687D
:103F80000A6842F480720A60016D491CF0E7416AD8
:103F9000026809781161416A491C4162418D491EDC
:103FA000418510BD2DE9F843044600680D46DDE962
:103FB000089701689846164641F4807101604B46A7
:103FC00000224FF001112046009700F037F948B168
:103FD00020680068C00502D54FF4007020640320FB
:103FE000BDE8F883216805F0FE0008613B464A46BB
:103FF0001549204600F056F988B920684169806962
:1040000000903A464946204600F097F948B1206CA6
:10401000042804D12068016841F400710160012086
:10402000DEE7F5B2B8F1010F09D02168300A086166
:104030003A464946204600F080F90028E7D120683A
:1040400005610020CCE700000200010038B50C46F5
:1040500090F83D2000212825954302680B4605D0A5
:1040600051699169009180F83C3038BD556825F45C
:1040700080655560E243540700D50121120601D541
:10408000828900E0028B80F83C3092B2FDF705FF98
:1040900038BD0000F8B590F83D60044600684168FE
:1040A00021F4E061416020680025416900910168C8
:1040B00041F0010101602068016821F48061016024
:1040C00020684168090520D5474F222E48D02A2E66
:1040D00046D0616B096849686185618D19B1216CB1
:1040E00041F004012164416821F400614160606B8A
:1040F000FDF76CFC012808D0606B4763606BFDF72F
:1041000019FC10B1606B416B8847608D08B3206863
:104110004169C943490708D40069616A0870606A47
:10412000401C6062608D401E608520684169C94303
:10413000490608D40069616A0870606A401C6062C0
:10414000608D401E6085608D18B1206C40F00400C9
:104150002064206C00B32046BDE8F840FFF7A2BB06
:10416000A16B096849686185618D19B1216C41F0C5
:1041700004012164416821F400614160A06BFDF7F6
:1041800025FC0128C1D0A06B4763A06BFDF7D2FBD3
:104190000028BAD0A06BB6E72A2E06D125632820C6
:1041A00084F83D002046FEF735F994F83D102020B4
:1041B00028290DD0216B222901D0222E07D1256379
:1041C00084F83D0084F83E502046FEF723F9F8BD00
:1041D0000649E162256384F83D0084F83E5020469C
:1041E000FEF73AF8F8BD0000E93700080000FFFFCD
:1041F00070B516460D4604460DE02046FFF7FEFB5F
:1042000008B1012070BD681C05D0FDF73FFE801B82
:10421000A84207D835B120684069C0434007ECD4B4
:10422000002070BD002044F8300F20216173A0737E
:10423000216941F0200121612073E2E72DE9F04777
:104240001E4690460D460446C1F30747DDF8209010
:1042500008E0701C06D0FDF719FEA0EB0900B04283
:104260000FD876B12068012F18D0806925EA0000A8
:104270000004000C14D000214145EAD00020BDE824
:10428000F087002044F8300F20216173A07321696A
:1042900041F02001216120730120F0E74069E5E74A
:1042A0000121E9E72DE9F0479A4691460E4604467A
:1042B00000254FF02008C1F3074725E0206840693A
:1042C000C043400514D42068016841F400710160C6
:1042D00021686FF480604861256384F83D8084F82C
:1042E0003E50206C40F00400206484F83C501FE0F5
:1042F000B9F1FF3F08D0FDF7C9FDA0EB0A01494520
:104300000CD8B9F1000F09D02068012F13D08069B3
:1043100026EA00000004000C0BD0CFE744F8305F21
:1043200084F80D80A573206940F02000206125737A
:104330000120BDE8F0874069EAE770B516460D46F2
:1043400004460DE02046FFF759FB08B1012070BD7F
:10435000681C05D0FDF79AFD801BA84207D835B12F
:1043600020684069C0430006ECD4002070BD0020E6
:1043700044F8300F20216173A073216941F02001BE
:1043800021612073E2E70000FEB500242548009477
:104390000194234902940160891581600126067306
:1043A0000475052505614FF460214460C161FDF786
:1043B000BBF808B1FCF7BCFF02270097CDE9016408
:1043C00069461848FCF7B8FF08B1FCF7B1FF0324B1
:1043D000CDE9004769461348FCF7AEFF08B1FCF78A
:1043E000A7FF0426CDE9006469460E48FCF7A4FF48
:1043F00008B1FCF79DFFCDE9005669460948FCF776
:104400009BFF08B1FCF794FF0620CDE90005694643
:104410000448FCF791FF002801D0FCF789FFFEBD9E
:1044200000240140300100203EB5002411480094D2
:10443000019402940E49846001600125057304759E
:1044400005614FF460214460C161FDF76DF808B16A
:10445000FCF76EFF0720CDE9000569460294054888
:10446000FCF76AFF002801D0FCF762FF3EBD0000A8
:1044700000280140600100200D4808B5416941F065
:10448000010141614069002200F0010000901146E5
:104490000B20FEF727F80B20FEF716F80022114636
:1044A0000F20FEF71FF8BDE808400F20FEF70CB8FC
:1044B000001002402DE9F04385B0002435480094F7
:1044C000019402940394816941F010018161816932
:1044D00001F010010491816941F02001816181693D
:1044E00001F020010491816941F004018161816939
:1044F00001F004010491816941F008018161806942
:10450000254F00F008004FF4604504900022294632
:104510003846FDF7B6FCDFF884904FF4406800227F
:1045200041464846FDF7ADFC00950226012503965D
:10453000CDE9015469463846FDF7A6FB184F0095B2
:10454000CDE9017469464846FDF79EFB0096CDE92A
:10455000017469461348FDF797FBCDF80080039678
:10456000CDE9015469464846FDF78EFB0022012142
:104570000620FDF7B7FF0620FDF7A6FF0022114633
:104580000720FDF7AFFF0720FDF79EFF05B0BDE850
:10459000F0830000001002400010014000080140BC
:1045A00000001110000C01400D4810B50B490160CE
:1045B0000C49416000214FF480428160C0E9031240
:1045C00041618161C1610162FDF782FD002803D074
:1045D000BDE81040FCF7ACBE10BD00000054004028
:1045E000D4010020A086010010B596B000240F94DD
:1045F00010941194129413941C2168461494FBF7A0
:10460000BCFD202107A8FBF7B8FD2D482B49016010
:104610004821C0E9011442F20F71C0E9031444615A
:104620008461FEF7F7FA08B1FCF782FE4FF4805080
:104630000F900FA92248FEF7B9FB08B1FCF778FEEE
:104640001F48FEF77DFD08B1FCF772FE139413A915
:104650001B481494FEF7AAFA08B1FCF769FE602023
:10466000009041F28830CDE901040394049405944C
:104670000022694612480694FEF7FFFC08B1FCF7D9
:1046800057FE042269460E48FEF7F7FC08B1FCF716
:104690004FFE0794089409944FF400500A94CDE912
:1046A0000B4007A906480E94FEF756FA08B1FCF72E
:1046B0003FFE0348FEF79AFC16B010BD002C0140E7
:1046C0002802002010B58EB00024079408940994A5
:1046D0000A940B941C2168460C94FBF74EFD1E486F
:1046E0004FF0804101604721C0E9011442F20F718F
:1046F000C0E903148461FEF78DFA08B1FCF718FED7
:104700004FF48050079007A91348FEF74FFB08B1FC
:10471000FCF70EFE1048FEF713FD08B1FCF708FE8B
:104720000B940BA90C480C94FEF740FA08B1FCF767
:10473000FFFD60200090FA20CDE9010400226946C7
:1047400005480494FEF799FC08B1FCF7F1FD024816
:10475000FEF74CFC0EB010BD7002002010B586B004
:10476000002417480094019402940394049413497C
:10477000059401604821C0E9011441F28831C0E983
:1047800003148461FEF746FA08B1FCF7D1FD4FF43B
:104790008050009069460A48FEF708FB08B1FCF714
:1047A000C7FD2020CDE9040404A90548FEF7FEF961
:1047B000002801D0FCF7BCFD06B010BD000400408D
:1047C000B802002010B586B0002417480094019468
:1047D0000294039404941349059401604821C0E9AC
:1047E000011447F23051C0E903148461FEF712FA54
:1047F00008B1FCF79DFD4FF48050009069460A48CF
:10480000FEF7D4FA08B1FCF793FD049404A9064816
:104810000594FEF7CBF9002801D0FCF789FD06B01E
:1048200010BD0000000800400003002010B5114C2E
:104830000F480C2120604FF4E13060600020A06040
:10484000E060C4E90401A061E0612046FEF79AFE41
:1048500008B1FCF76DFD2068C16841F01001C1602E
:104860000449C822BDE81040C8390248FEF742BFDB
:1048700000380140100400200C4810B50A490160BE
:104880004FF4E1314160002181600C22C160C0E938
:1048900004128161C161FEF775FE002803D0BDE8F6
:1048A0001040FCF745BD10BD0048004054040020F6
:1048B000FEE7FEE770B5002404F1B000C0B200F0DE
:1048C00039F9002000F036F9102000F033F9002506
:1048D000002000F041F96D1CEDB2802DF8D3641C6E
:1048E000E4B2082CE8D370BD10B5C820FDF782F9FA
:1048F000BDE8104000F07CBC70B5002404F1B000AD
:10490000C0B200F017F9002000F014F9102000F0F8
:1049100011F90025012000F01FF96D1CEDB2802D6A
:10492000F8D3641CE4B2082CE8D370BD10B504467B
:10493000B031C8B200F0FEF8102040EA141000F0C8
:10494000F9F804F00F00BDE8104000F0F3B80000E3
:104950002DE9F041203A00240D468046D6B27F284A
:1049600003D900208D1C8046EDB2102B29460FD0B4
:10497000FFF7DCFF164906EB460001EB4005285D1A
:1049800000F0EAF8641CE4B2062CF8D3BDE8F0812C
:10499000FFF7CCFF0F4F00BF04EB0610385C00F0B0
:1049A000DBF8641CE4B2082CF6D36D1CE9B2404677
:1049B000FFF7BCFF5FF0000404EB06103844007AF8
:1049C00000F0CAF8641CE4B2082CF5D3DEE700005E
:1049D000327100085A7300082DE9F05F0026DDF8F7
:1049E00028901D4692468B46804634464FEA59072A
:1049F00023E0281B401EC1B20A2002F092FBBAFB42
:104A0000F0F00A21B0FBF1F201FB120026B9691E99
:104A10008C4201DA38B101263030C2B207FB048083
:104A2000C0B24B4604E007FB0480C0B24B462022D4
:104A30005946FFF78DFF641CE4B2AC42D9D3BDE800
:104A4000F09F2DE9F041984617460E460446002592
:104A50000DE0434631462046FFF77AFF0834E4B2C2
:104A6000782C02D90024B61CF6B26D1CEDB27A5D2A
:104A7000002AEED1BDE8F0812DE9FF5F82B08246C9
:104A8000DDE9109715461E46002410461946DDF84C
:104A900048B0FBF7E1FF80B28046FBF7A3FF2A4650
:104AA0003346FBF7ADFE05460E464B464246CDF873
:104AB00000B050460399FFF78FFF4FEA5B0809F1FA
:104AC000010108FB01A0C0B25B462E220399FFF74B
:104AD0003FFF09F1020108FB01A000F0FF0A21E0FD
:104AE0000022134B28463146FBF78DFE0E46054645
:104AF000FBF7B2FF80B28146FBF774FF2A463346CC
:104B0000FBF77EFE054609F13000C2B208FB04A0A7
:104B10000E46C0B25B460399FFF71AFF641C7F1E66
:104B2000E4B2FFB2002FDBD106B0BDE8F09F000079
:104B30000000244001B584B001214FF4807204A824
:104B40008DE807000B46002278210248FDF78AFB1A
:104B500005B000BDD401002001B584B001214FF49F
:104B6000807204A88DE807000B4640227821024895
:104B7000FDF778FB05B000BDD401002070477047F9
:104B8000FDF74ABC30B593B028216846FBF7F5FA2B
:104B900014210AA8FBF7F1FA002501200F951095C2
:104BA0001195010412958DE8230004904FF4E01054
:104BB000CDE90810022407946846FDF727FE08B1E6
:104BC00072B6FEE70AA90F2081E831004FF4806039
:104BD000CDE90D0502210AA8FDF72CFD08B172B63A
:104BE000FEE74FF4004011900F940FA8FDF7ACFCC6
:104BF000002801D072B6FEE713B030BD7047000048
:104C00000148FEF73FB90000B80200200148FEF756
:104C100039B9000000030020F0B50268164B174CAC
:104C2000174D4FF08047984205D0B84203D0A042BC
:104C300001D0A84203D122F070064A68324398425C
:104C400005D0B84203D0A04201D0A84203D122F43B
:104C50004074CA6822434C6922F0800222430260F9
:104C60008A68C2620A688262984201D10969016356
:104C700001214161F0BD0000002C01400004004012
:104C80000008004010B501F01F030121046A99409B
:104C90008C430462016A9A401143016210BD10B551
:104CA000846842EA032224F47F440A432243826058
:104CB00010BD826822F070020A4342F00701816051
:104CC0007047000030B5026A22F001020262026AF7
:104CD0004368846924F073050C682C4322F00205B4
:104CE0008A682A430A4DA8420BD122F00805CA68F7
:104CF00023F440732A434D6922F004021D438B695B
:104D00002B434360846149684163026230BD000007
:104D1000002C014030B5026A22F010020262026AE1
:104D2000436884690D6824F4E64444EA05248D68E8
:104D300022F0200242EA05120B4DA8420ED1CD68A6
:104D400022F0800242EA05124D6923F4406343EAEF
:104D500085038D6922F0400243EA85034360846144
:104D600049688163026230BD002C014030B5026A9F
:104D700022F480720262036A4268C46923F40073F9
:104D800024F073050C682C438D6843EA05230C4D11
:104D9000A8420ED1CD6823F4006343EA05234D6990
:104DA00022F4405242EA05128D6923F4806342EAFC
:104DB00005124260C4614968C163036230BD0000EE
:104DC000002C014030B5026A22F480520262046A6B
:104DD0004268C3690D6823F4E64343EA05238D68FE
:104DE00024F4005444EA0534064DA84204D14D6928
:104DF00022F4804242EA85124260C361496801643C
:104E0000046230BD002C014010B5036A046A24F02E
:104E100001040462846924F0F00444EA021423F0DB
:104E20000A020A438461026210BD10B5036A23F0CE
:104E3000100303628369046A23F4704343EA023275
:104E400024F0A00343EA01118261016210BD10B594
:104E5000406A0021C185C184FEF78CFA10BD70B58F
:104E6000446A2068406994F83D10C0F3C0100025E2
:104E7000212904D118B1E584204600F067F82068A4
:104E8000406994F83E10C0F38010222904D118B173
:104E9000E585204600F042F8206C40F010002064C8
:104EA0002046FEF767FA70BD10B50146406A0968F2
:104EB000096889061BD40021C1850168CA6822F4EB
:104EC0008072CA6001684A6922F001024A61016881
:104ED0004A6922F040024A61202180F83E10016BAD
:104EE000012904D10168CA6822F01002CA60016B6E
:104EF000012902D0FEF713FC10BD818DFEF70DFADB
:104F000010BD10B5406A016B012902D0FEF708FC04
:104F100010BD818D4908FEF700FA10BD0168CA680E
:104F200022F49072CA6001684A6922F001024A6163
:104F3000016B012904D10168CA6822F01002CA601D
:104F4000202180F83E100021016370470168CA6883
:104F500022F0C002CA60202180F83D10704708B5D9
:104F600090F83E10222901D0022008BD82684FF43B
:104F700080539A4201D1016921B1816A9A421BD0C2
:104F80004AB10AE00268816A5268C2F308020A80E4
:104F9000816A891C08E0026972B10268526802F0F5
:104FA0007F020A70816A491C8162C18D491E090411
:104FB000090CC18503D019E002685268F1E7016865
:104FC000CA6822F02002CA600168CA6822F48072AE
:104FD000CA6001684A6922F001024A61202180F812
:104FE0003E10016B012903D0FEF799FB002008BD9C
:104FF000002101630168CA6822F01002CA600168DA
:105000000A68D20602D50A6849680091818DFEF7C8
:1050100084F9EBE770B5044600680169E26821F4A1
:105020004051114301612169A06808436169084347
:105030002168CA6841F20C639A430243CA6020683F
:105040004169A26921F44071114341611E49206800
:10505000884202D1FDF794FB01E0FDF781FB00EBF4
:10506000C00101EB0012606864218000B2FBF0F324
:10507000B3FBF1F36FF018067343B2FBF0F5B2FB2C
:10508000F0F605EB8305322303EB0515B5FBF1F5CF
:10509000B6FBF1F605F0F00505EB0615B2FBF0F6F0
:1050A000B2FBF0F0B0FBF1F06FF01802504306EBEA
:1050B000800003EB0010B0FBF1F0216800F00F005E
:1050C0002844886070BD00000038014038B5816216
:1050D00082850025134604460564222084F83E009C
:1050E000A26B13489062A26B1248D062A26B124866
:1050F0001063A06B0A4645632168A06B091DFCF78D
:1051000041FD206801684168009184F83C50C16805
:1051100041F48071C1602068416941F00101416141
:105120002068416941F040014161002038BD000024
:10513000A94E0008034F00085F4E00082DE9F0411A
:10514000984617460E460446069D1DE0681C1BD077
:105150002DB1FCF79BFEA0EB0800A84214D92068F3
:10516000C16821F4D071C1602068416921F001015A
:105170004161202084F83D0084F83E00002084F83E
:105180003C000320BDE8F0812068006836EA00009A
:1051900004D00020B842D9D00020F3E70120F9E77D
:1051A0000E4808B500680168C1F3001189B10168B3
:1051B00041680091016840680848FEF7AFF8084868
:1051C000006840680749C0F1C8000870064901201E
:1051D0000870BDE808400148FEF7CEB81004002072
:1051E000980400205B0000205C000020FEE7000027
:1051F000FEB50024094F4FF4807501263819CDE91A
:10520000000601230022782102950548FDF72AF8BF
:10521000641CE4B21B2CF1D3FEBD00004000002052
:10522000D40100200FB4054B10B503A9044A02981D
:1052300000F0F2F810BC5DF814FB0000C17000082B
:10524000700000200907090E002804DB00F1E020AF
:1052500080F80014704700F00F0000F1E02080F8A3
:10526000141D704702E008C8121F08C1002AFAD1B5
:1052700070477047002001E001C1121F002AFBD1D6
:10528000704700002DE9FF5F82B00021DDE90430A6
:10529000020DDDF840B0034318D044F61050A2F2DE
:1052A000FF3242431514119801281FD0A5EB0B00C3
:1052B000401C5FEA000A4FF000064E4FDFF83891BD
:1052C000B046504615D5CAF1000413E011980124E8
:1052D0004AA3012801D16FEA0B010298119AC0E993
:1052E0000031C0E9024206B0BDE8F09FCBF10000FA
:1052F000DFE704460021404A491842EB0450CDE95B
:10530000001012E0E00707D032463B4640464946CF
:10531000FBF779FA8046894632463B4610461946E5
:10532000FBF771FA06460F466410002CEAD1DDE95E
:105330000401DDE90023BAF1000F06DAFBF763FA96
:1053400042464B46FBF75FFA05E0FBF7CEFA4246D2
:105350004B46FBF7CAFA04460E460022284BFBF7E1
:1053600031FD03D84FF0FF30014607E00022254B06
:1053700020463146FBF7A0F9FBF70CFD102409E0AD
:10538000002C0ADB0A220023FBF7DEFB039B3032F2
:105390001A55641E50EA0102F2D1641C039AC4F14A
:1053A00011031444119A012A03D0012208430DD19C
:1053B0000AE0084304D000204FF0110B119072E76F
:1053C000A3EB0B056D1E0DE05B4504DD4FF0000205
:1053D00005F1010504E003DA4FF00002A5F1010533
:1053E000002AECD002981199C0E90231C0E90045C9
:1053F00079E70000000014400000F03F300000009A
:105400000000F0430000E03F30380A2801D20120BC
:1054100070470020704700002DE9FF4F95B09A4675
:10542000884606460025EEE1252877D10024274648
:10543000F94A0121039400E0044316F8013F203BA0
:1054400001FA03F01042F7D130782A2811D06FF01A
:105450002F033078A0F13002092A16D8039A44F0BD
:10546000020402EB820203EB42021044761C03901A
:10547000EFE758F8042B0392002A03DA504244F471
:105480000054039044F00204761C30782E2816D184
:1054900016F8010F44F004042A280DD06FF02F02F3
:1054A0003078A0F13003092B09D807EB870302EB12
:1054B0004303C718761CF3E758F8047B761C307852
:1054C0006C280FD006DC4C2817D068280DD06A282D
:1054D00014D104E0742810D07A280FD10DE044F4E0
:1054E00000140AE044F4801401E044F4401472789B
:1054F000824202D104F58014761C761C307866282E
:105500000BD013DC582877D009DC002875D045284B
:10551000F6D04628F4D047281AD193E118E0632842
:1055200035D0642879D0652812D18BE1702873D0EA
:1055300008DC6728F1D069286FD06E280DD06F285D
:1055400006D1ACE073282CD0752874D0782853D0BD
:105550005246179990476D1C54E1C4F3025002283B
:1055600009D003280DD0D8F8001004280DD00D6004
:1055700008F1040846E1D8F80010EA17C1E9005222
:10558000F6E7D8F800100D80F2E70D70F0E718F894
:10559000041B8DF8001000208DF80100EB4601205F
:1055A00003E058F804BB4FF0FF3061074FF00001F3
:1055B00002D40DE009F101018946B9420FDA8145B3
:1055C000F8DB1BF809100029F4D108E009F101010A
:1055D00089468142FADB1BF809100029F6D10398AD
:1055E0005346A0EB090721463846179A00F080FA87
:1055F000284400EB090507E044E008E10DE01BF852
:10560000010B524617999047B9F10109F7D2534659
:1056100021463846179AF2E039E00A21C4F30252D3
:105620004FF0000B0091022A06D058F8040BC11766
:10563000032A09D00AE023E008F1070020F007025E
:10564000F2E80201904605E000B2C117042A01D138
:1056500040B2C117002906DA0A460021404261EB38
:1056600002012D2202E0220504D52B228DF8042010
:10567000012203E0E20701D02022F7E7914657E03C
:105680000A2100E010214FF0000B00910BE01021E7
:105690004FF0000B44F004040827009103E00820B9
:1056A0004FF0000B0090C4F30252022A05D058F8C4
:1056B000040B0021032A08D008E008F1070020F0BD
:1056C0000702F2E80201904603E080B2042A00D10A
:1056D000C0B24FF0000922072AD53278702A07D0CD
:1056E000DDF800C08CF0100C5CEA0B0C05D00EE06D
:1056F00040228DF80420012208E050EA010306D080
:1057000030238DF804308DF8052002229146009B4D
:1057100083F0080353EA0B030AD150EA010201D1D6
:10572000620705D530228DF804204FF001097F1E55
:105730003278582A04D039A20C920CAA02920BE0BB
:105740003BA2F9E75B46009AFBF7FEF90C9B9B5CDA
:10575000029A521E0292137050EA0102F2D102988C
:1057600004A9081A00F1200B600702D524F4803444
:1057700000E001275F4502DDA7EB0B0000E0002001
:1057800000EB0B01009003984944401A0390E0039A
:1057900006D453462146179A039800F0A9F9054408
:1057A000002706E001A85246C05D179990476D1C7E
:1057B0007F1C4F45F6DBE0030CD553462146179A74
:1057C000039800F095F9054404E0302052461799FB
:1057D00090476D1C0099481E00900029F5DC08E0F8
:1057E0000298029952460078491C029117999047F5
:1057F0006D1CBBF10001ABF1010BF1DC5BE100F0D2
:1058000065F90544761C307800287FF40DAE19B098
:105810002846BDE8F08F00000928010030313233FE
:1058200034353637383961626364656600000000DC
:1058300030313233343536373839414243444546C6
:1058400000000000600700D4062708F1070020F0E0
:105850000700F0E80223804603F0004C5FEA0C00EA
:1058600001D097A009E0200501D596A005E0E0074A
:1058700001D095A001E0AFF24C001390307823F0F6
:10588000004365280CD006DC452809D046281DD0E9
:1058900047287FD13BE0662818D067287AD136E0C8
:1058A0000021112F01DB112000E0781CCDE900015F
:1058B00004A90CA8FFF7E6FCDDE90D010C9A4FF0F6
:1058C000000B07F10109109200914EE04FF00040EB
:1058D0000097CDE9011004A90CA8FFF7D3FCDDE97E
:1058E0000D020C9B0F994FF0000B91461093009204
:1058F00011B9791C00EB0109B7EB090003D4C0F121
:10590000FF3B07F10109A9EB0700019042E0012FDD
:1059100000DA01270021112F01DD112000E03846B7
:10592000CDE9000104A90CA8FFF7ACFCDDE90D01ED
:105930000C9A00914FF0000BB946109221070FD43A
:10594000009A4A4503DA914601E0A9F10109B9F14B
:10595000010F05DD109AA9F10101515C3029F4D045
:10596000B84202DA10F1040F03DA0121CDE9011087
:1059700010E0002803DC8344A9EB000102E0411C95
:10598000494500DD8946A0EB0B00401C01904FF01B
:1059900000400290200705D40198484502DB4FF0F3
:1059A000FF30019000208DF84B0002980DF14B075D
:1059B000B0F1004F25D002200C902B200D900298C2
:1059C00000280CDA404202902D200D9007E00A21B9
:1059D0000298FBF7A3F83031029007F8011D0C99EB
:1059E000481E0C900029F2DC02980028EFD1791EA5
:1059F0000D980870307800F0200040F0450007F85E
:105A0000020D11A8C01BC01D02901398007800B1B0
:105A1000012000EB0901019801EBE07102980144BB
:105A20000398401A401E0390E00306D453462146D3
:105A3000179A039800F05CF805441398007818B1A1
:105A40005246179990476D1CE00323D553462146D3
:105A5000179A039800F04CF805441BE0BBF1000FC7
:105A600007DB0098584504DD1098179910F80B00D3
:105A700001E0179930205246904701980BF1010B35
:105A8000401E05F10105019004D12E2052461799C0
:105A900090476D1CB9F10001A9F10109DEDC05E0B8
:105AA00017F8010B5246179990476D1C0299481E32
:105AB00002900029F4DC53462146179A03989EE68B
:105AC0002D0000002B000000200000002DE9F04117
:105AD000044600251E461746880404D405E03946CE
